{
  "abi": [
    {
      "inputs": [
        {
          "internalType": "address",
          "name": "account",
          "type": "address"
        }
      ],
      "stateMutability": "nonpayable",
      "type": "constructor"
    },
    {
      "anonymous": false,
      "inputs": [
        {
          "indexed": true,
          "internalType": "address",
          "name": "owner",
          "type": "address"
        },
        {
          "indexed": true,
          "internalType": "address",
          "name": "spender",
          "type": "address"
        },
        {
          "indexed": false,
          "internalType": "uint256",
          "name": "amount",
          "type": "uint256"
        }
      ],
      "name": "Approval",
      "type": "event"
    },
    {
      "anonymous": false,
      "inputs": [
        {
          "indexed": true,
          "internalType": "address",
          "name": "delegator",
          "type": "address"
        },
        {
          "indexed": true,
          "internalType": "address",
          "name": "fromDelegate",
          "type": "address"
        },
        {
          "indexed": true,
          "internalType": "address",
          "name": "toDelegate",
          "type": "address"
        }
      ],
      "name": "DelegateChanged",
      "type": "event"
    },
    {
      "anonymous": false,
      "inputs": [
        {
          "indexed": true,
          "internalType": "address",
          "name": "delegate",
          "type": "address"
        },
        {
          "indexed": false,
          "internalType": "uint256",
          "name": "previousBalance",
          "type": "uint256"
        },
        {
          "indexed": false,
          "internalType": "uint256",
          "name": "newBalance",
          "type": "uint256"
        }
      ],
      "name": "DelegateVotesChanged",
      "type": "event"
    },
    {
      "anonymous": false,
      "inputs": [
        {
          "indexed": true,
          "internalType": "address",
          "name": "from",
          "type": "address"
        },
        {
          "indexed": true,
          "internalType": "address",
          "name": "to",
          "type": "address"
        },
        {
          "indexed": false,
          "internalType": "uint256",
          "name": "amount",
          "type": "uint256"
        }
      ],
      "name": "Transfer",
      "type": "event"
    },
    {
      "inputs": [],
      "name": "DELEGATION_TYPEHASH",
      "outputs": [
        {
          "internalType": "bytes32",
          "name": "",
          "type": "bytes32"
        }
      ],
      "stateMutability": "view",
      "type": "function"
    },
    {
      "inputs": [],
      "name": "DOMAIN_TYPEHASH",
      "outputs": [
        {
          "internalType": "bytes32",
          "name": "",
          "type": "bytes32"
        }
      ],
      "stateMutability": "view",
      "type": "function"
    },
    {
      "inputs": [
        {
          "internalType": "address",
          "name": "account",
          "type": "address"
        },
        {
          "internalType": "address",
          "name": "spender",
          "type": "address"
        }
      ],
      "name": "allowance",
      "outputs": [
        {
          "internalType": "uint256",
          "name": "",
          "type": "uint256"
        }
      ],
      "stateMutability": "view",
      "type": "function"
    },
    {
      "inputs": [
        {
          "internalType": "address",
          "name": "spender",
          "type": "address"
        },
        {
          "internalType": "uint256",
          "name": "rawAmount",
          "type": "uint256"
        }
      ],
      "name": "approve",
      "outputs": [
        {
          "internalType": "bool",
          "name": "",
          "type": "bool"
        }
      ],
      "stateMutability": "nonpayable",
      "type": "function"
    },
    {
      "inputs": [
        {
          "internalType": "address",
          "name": "account",
          "type": "address"
        }
      ],
      "name": "balanceOf",
      "outputs": [
        {
          "internalType": "uint256",
          "name": "",
          "type": "uint256"
        }
      ],
      "stateMutability": "view",
      "type": "function"
    },
    {
      "inputs": [
        {
          "internalType": "address",
          "name": "",
          "type": "address"
        },
        {
          "internalType": "uint32",
          "name": "",
          "type": "uint32"
        }
      ],
      "name": "checkpoints",
      "outputs": [
        {
          "internalType": "uint32",
          "name": "fromBlock",
          "type": "uint32"
        },
        {
          "internalType": "uint96",
          "name": "votes",
          "type": "uint96"
        }
      ],
      "stateMutability": "view",
      "type": "function"
    },
    {
      "inputs": [],
      "name": "decimals",
      "outputs": [
        {
          "internalType": "uint8",
          "name": "",
          "type": "uint8"
        }
      ],
      "stateMutability": "view",
      "type": "function"
    },
    {
      "inputs": [
        {
          "internalType": "address",
          "name": "delegatee",
          "type": "address"
        }
      ],
      "name": "delegate",
      "outputs": [],
      "stateMutability": "nonpayable",
      "type": "function"
    },
    {
      "inputs": [
        {
          "internalType": "address",
          "name": "delegatee",
          "type": "address"
        },
        {
          "internalType": "uint256",
          "name": "nonce",
          "type": "uint256"
        },
        {
          "internalType": "uint256",
          "name": "expiry",
          "type": "uint256"
        },
        {
          "internalType": "uint8",
          "name": "v",
          "type": "uint8"
        },
        {
          "internalType": "bytes32",
          "name": "r",
          "type": "bytes32"
        },
        {
          "internalType": "bytes32",
          "name": "s",
          "type": "bytes32"
        }
      ],
      "name": "delegateBySig",
      "outputs": [],
      "stateMutability": "nonpayable",
      "type": "function"
    },
    {
      "inputs": [
        {
          "internalType": "address",
          "name": "",
          "type": "address"
        }
      ],
      "name": "delegates",
      "outputs": [
        {
          "internalType": "address",
          "name": "",
          "type": "address"
        }
      ],
      "stateMutability": "view",
      "type": "function"
    },
    {
      "inputs": [
        {
          "internalType": "address",
          "name": "account",
          "type": "address"
        }
      ],
      "name": "getCurrentVotes",
      "outputs": [
        {
          "internalType": "uint96",
          "name": "",
          "type": "uint96"
        }
      ],
      "stateMutability": "view",
      "type": "function"
    },
    {
      "inputs": [
        {
          "internalType": "address",
          "name": "account",
          "type": "address"
        },
        {
          "internalType": "uint256",
          "name": "blockNumber",
          "type": "uint256"
        }
      ],
      "name": "getPriorVotes",
      "outputs": [
        {
          "internalType": "uint96",
          "name": "",
          "type": "uint96"
        }
      ],
      "stateMutability": "view",
      "type": "function"
    },
    {
      "inputs": [],
      "name": "name",
      "outputs": [
        {
          "internalType": "string",
          "name": "",
          "type": "string"
        }
      ],
      "stateMutability": "view",
      "type": "function"
    },
    {
      "inputs": [
        {
          "internalType": "address",
          "name": "",
          "type": "address"
        }
      ],
      "name": "nonces",
      "outputs": [
        {
          "internalType": "uint256",
          "name": "",
          "type": "uint256"
        }
      ],
      "stateMutability": "view",
      "type": "function"
    },
    {
      "inputs": [
        {
          "internalType": "address",
          "name": "",
          "type": "address"
        }
      ],
      "name": "numCheckpoints",
      "outputs": [
        {
          "internalType": "uint32",
          "name": "",
          "type": "uint32"
        }
      ],
      "stateMutability": "view",
      "type": "function"
    },
    {
      "inputs": [],
      "name": "symbol",
      "outputs": [
        {
          "internalType": "string",
          "name": "",
          "type": "string"
        }
      ],
      "stateMutability": "view",
      "type": "function"
    },
    {
      "inputs": [],
      "name": "totalSupply",
      "outputs": [
        {
          "internalType": "uint256",
          "name": "",
          "type": "uint256"
        }
      ],
      "stateMutability": "view",
      "type": "function"
    },
    {
      "inputs": [
        {
          "internalType": "address",
          "name": "dst",
          "type": "address"
        },
        {
          "internalType": "uint256",
          "name": "rawAmount",
          "type": "uint256"
        }
      ],
      "name": "transfer",
      "outputs": [
        {
          "internalType": "bool",
          "name": "",
          "type": "bool"
        }
      ],
      "stateMutability": "nonpayable",
      "type": "function"
    },
    {
      "inputs": [
        {
          "internalType": "address",
          "name": "src",
          "type": "address"
        },
        {
          "internalType": "address",
          "name": "dst",
          "type": "address"
        },
        {
          "internalType": "uint256",
          "name": "rawAmount",
          "type": "uint256"
        }
      ],
      "name": "transferFrom",
      "outputs": [
        {
          "internalType": "bool",
          "name": "",
          "type": "bool"
        }
      ],
      "stateMutability": "nonpayable",
      "type": "function"
    }
  ],
  "bytecode": {
    "object": "0x608060405234801561001057600080fd5b5060405161191638038061191683398101604081905261002f916100a5565b6001600160a01b03811660008181526001602052604080822080546001600160601b0319166a084595161401484a00000090811790915590517fddf252ad1be2c89b69c2b068fc378daa952ba7f163c4a11628f55a4df523b3ef916100979190815260200190565b60405180910390a3506100d5565b6000602082840312156100b757600080fd5b81516001600160a01b03811681146100ce57600080fd5b9392505050565b611832806100e46000396000f3fe608060405234801561001057600080fd5b50600436106101215760003560e01c806370a08231116100ad578063b4b5ea5711610071578063b4b5ea571461033e578063c3cda52014610351578063dd62ed3e14610364578063e7a324dc146103a4578063f1127ed8146103cb57600080fd5b806370a082311461028b578063782d6fe1146102bd5780637ecebe00146102e857806395d89b4114610308578063a9059cbb1461032b57600080fd5b806323b872dd116100f457806323b872dd146101cd578063313ce567146101e0578063587cde1e146101fa5780635c19a95c1461023b5780636fcfff451461025057600080fd5b806306fdde0314610126578063095ea7b31461016357806318160ddd1461018657806320606b70146101a6575b600080fd5b61014d6040518060400160405280600881526020016710dbdb5c1bdd5b9960c21b81525081565b60405161015a91906113d5565b60405180910390f35b610176610171366004611446565b610432565b604051901515815260200161015a565b6101986a084595161401484a00000081565b60405190815260200161015a565b6101987f8cad95687ba82c2ce50e74f7b754645e5117c3a5bec8151c0726d5857980a86681565b6101766101db366004611470565b6104f1565b6101e8601281565b60405160ff909116815260200161015a565b6102236102083660046114ac565b6002602052600090815260409020546001600160a01b031681565b6040516001600160a01b03909116815260200161015a565b61024e6102493660046114ac565b610632565b005b61027661025e3660046114ac565b60046020526000908152604090205463ffffffff1681565b60405163ffffffff909116815260200161015a565b6101986102993660046114ac565b6001600160a01b03166000908152600160205260409020546001600160601b031690565b6102d06102cb366004611446565b61063f565b6040516001600160601b03909116815260200161015a565b6101986102f63660046114ac565b60056020526000908152604090205481565b61014d604051806040016040528060048152602001630434f4d560e41b81525081565b610176610339366004611446565b6108cb565b6102d061034c3660046114ac565b610907565b61024e61035f3660046114c7565b610985565b610198610372366004611527565b6001600160a01b039182166000908152602081815260408083209390941682529190915220546001600160601b031690565b6101987fe48329057bfd03d55e49b547132e39cffd9c1820ad7b9d4c5307691425d15adf81565b61040e6103d936600461155a565b600360209081526000928352604080842090915290825290205463ffffffff811690600160201b90046001600160601b031682565b6040805163ffffffff90931683526001600160601b0390911660208301520161015a565b60008060001983141561044d57506001600160601b03610472565b61046f836040518060600160405280602581526020016116c260259139610c71565b90505b336000818152602081815260408083206001600160a01b0389168085529083529281902080546001600160601b0319166001600160601b03871690811790915590519081529192917f8c5be1e5ebec7d5bd14f71427d1e84f3dd0314c0f7b2291e5b200ac8c7c3b925910160405180910390a360019150505b92915050565b6001600160a01b0383166000908152602081815260408083203380855290835281842054825160608101909352602580845291936001600160601b0390911692859261054792889291906116c290830139610c71565b9050866001600160a01b0316836001600160a01b03161415801561057457506001600160601b0382811614155b1561061a57600061059e83836040518060600160405280603d8152602001611799603d9139610ca0565b6001600160a01b03898116600081815260208181526040808320948a168084529482529182902080546001600160601b0319166001600160601b0387169081179091559151918252939450919290917f8c5be1e5ebec7d5bd14f71427d1e84f3dd0314c0f7b2291e5b200ac8c7c3b925910160405180910390a3505b610625878783610cea565b5060019695505050505050565b61063c3382610f3b565b50565b60004382106106a55760405162461bcd60e51b815260206004820152602760248201527f436f6d703a3a6765745072696f72566f7465733a206e6f742079657420646574604482015266195c9b5a5b995960ca1b60648201526084015b60405180910390fd5b6001600160a01b03831660009081526004602052604090205463ffffffff16806106d35760009150506104eb565b6001600160a01b038416600090815260036020526040812084916106f86001856115b0565b63ffffffff9081168252602082019290925260400160002054161161076b576001600160a01b03841660009081526003602052604081209061073b6001846115b0565b63ffffffff168152602081019190915260400160002054600160201b90046001600160601b031691506104eb9050565b6001600160a01b038416600090815260036020908152604080832083805290915290205463ffffffff168310156107a65760009150506104eb565b6000806107b46001846115b0565b90505b8163ffffffff168163ffffffff16111561088657600060026107d984846115b0565b6107e391906115d5565b6107ed90836115b0565b6001600160a01b038816600090815260036020908152604080832063ffffffff858116855290835292819020815180830190925254928316808252600160201b9093046001600160601b03169181019190915291925087141561085a576020015194506104eb9350505050565b805163ffffffff168711156108715781935061087f565b61087c6001836115b0565b92505b50506107b7565b506001600160a01b038516600090815260036020908152604080832063ffffffff909416835292905220546001600160601b03600160201b9091041691505092915050565b6000806108f0836040518060600160405280602681526020016116e760269139610c71565b90506108fd338583610cea565b5060019392505050565b6001600160a01b03811660009081526004602052604081205463ffffffff168061093257600061097e565b6001600160a01b0383166000908152600360205260408120906109566001846115b0565b63ffffffff168152602081019190915260400160002054600160201b90046001600160601b03165b9392505050565b604080518082018252600881526710dbdb5c1bdd5b9960c21b60209182015281517f8cad95687ba82c2ce50e74f7b754645e5117c3a5bec8151c0726d5857980a866818301527f561ca898cce9f021c15a441ef41899706e923541cee724530075d1a1144761c781840152466060820152306080808301919091528351808303909101815260a0820184528051908301207fe48329057bfd03d55e49b547132e39cffd9c1820ad7b9d4c5307691425d15adf60c08301526001600160a01b038a1660e083015261010082018990526101208083018990528451808403909101815261014083019094528351939092019290922061190160f01b6101608401526101628301829052610182830181905290916000906101a20160408051601f198184030181528282528051602091820120600080855291840180845281905260ff8a169284019290925260608301889052608083018790529092509060019060a0016020604051602081039080840390855afa158015610b08573d6000803e3d6000fd5b5050604051601f1901519150506001600160a01b038116610b7a5760405162461bcd60e51b815260206004820152602660248201527f436f6d703a3a64656c656761746542795369673a20696e76616c6964207369676044820152656e617475726560d01b606482015260840161069c565b6001600160a01b0381166000908152600560205260408120805491610b9e83611606565b919050558914610bfb5760405162461bcd60e51b815260206004820152602260248201527f436f6d703a3a64656c656761746542795369673a20696e76616c6964206e6f6e604482015261636560f01b606482015260840161069c565b87421115610c5a5760405162461bcd60e51b815260206004820152602660248201527f436f6d703a3a64656c656761746542795369673a207369676e617475726520656044820152651e1c1a5c995960d21b606482015260840161069c565b610c64818b610f3b565b505050505b505050505050565b600081600160601b8410610c985760405162461bcd60e51b815260040161069c91906113d5565b509192915050565b6000836001600160601b0316836001600160601b031611158290610cd75760405162461bcd60e51b815260040161069c91906113d5565b50610ce28385611621565b949350505050565b6001600160a01b038316610d665760405162461bcd60e51b815260206004820152603c60248201527f436f6d703a3a5f7472616e73666572546f6b656e733a2063616e6e6f7420747260448201527f616e736665722066726f6d20746865207a65726f206164647265737300000000606482015260840161069c565b6001600160a01b038216610de25760405162461bcd60e51b815260206004820152603a60248201527f436f6d703a3a5f7472616e73666572546f6b656e733a2063616e6e6f7420747260448201527f616e7366657220746f20746865207a65726f2061646472657373000000000000606482015260840161069c565b6001600160a01b038316600090815260016020908152604091829020548251606081019093526036808452610e2d936001600160601b03909216928592919061168c90830139610ca0565b6001600160a01b03848116600090815260016020908152604080832080546001600160601b0319166001600160601b03968716179055928616825290829020548251606081019093526030808452610e95949190911692859290919061176990830139610fc5565b6001600160a01b0383811660008181526001602090815260409182902080546001600160601b0319166001600160601b03968716179055905193851684529092918616917fddf252ad1be2c89b69c2b068fc378daa952ba7f163c4a11628f55a4df523b3ef910160405180910390a36001600160a01b03808416600090815260026020526040808220548584168352912054610f3692918216911683611012565b505050565b6001600160a01b03808316600081815260026020818152604080842080546001845282862054949093528787166001600160a01b031984168117909155905191909516946001600160601b039092169391928592917f3134e8a2e6d97e929a7e54011ea5485d7d196dd5f0ba4d4ef95803e8e3fc257f9190a4610fbf828483611012565b50505050565b600080610fd28486611641565b9050846001600160601b0316816001600160601b0316101583906110095760405162461bcd60e51b815260040161069c91906113d5565b50949350505050565b816001600160a01b0316836001600160a01b03161415801561103d57506000816001600160601b0316115b15610f36576001600160a01b03831615611102576001600160a01b03831660009081526004602052604081205463ffffffff16908161107d5760006110c9565b6001600160a01b0385166000908152600360205260408120906110a16001856115b0565b63ffffffff168152602081019190915260400160002054600160201b90046001600160601b03165b905060006110f0828560405180606001604052806028815260200161174160289139610ca0565b90506110fe868484846111ba565b5050505b6001600160a01b03821615610f36576001600160a01b03821660009081526004602052604081205463ffffffff16908161113d576000611189565b6001600160a01b0384166000908152600360205260408120906111616001856115b0565b63ffffffff168152602081019190915260400160002054600160201b90046001600160601b03165b905060006111b082856040518060600160405280602781526020016117d660279139610fc5565b9050610c69858484845b60006111de4360405180606001604052806034815260200161170d603491396113b2565b905060008463ffffffff1611801561123857506001600160a01b038516600090815260036020526040812063ffffffff83169161121c6001886115b0565b63ffffffff908116825260208201929092526040016000205416145b156112ac576001600160a01b038516600090815260036020526040812083916112626001886115b0565b63ffffffff168152602081019190915260400160002080546001600160601b0392909216600160201b026fffffffffffffffffffffffff000000001990921691909117905561135d565b60408051808201825263ffffffff80841682526001600160601b0380861660208085019182526001600160a01b038b166000908152600382528681208b8616825290915294909420925183549451909116600160201b026fffffffffffffffffffffffffffffffff1990941691161791909117905561132c84600161166c565b6001600160a01b0386166000908152600460205260409020805463ffffffff191663ffffffff929092169190911790555b604080516001600160601b038086168252841660208201526001600160a01b038716917fdec2bacdd2f05b59de34da9b523dff8be42e5e38e818c82fdb0bae774387a724910160405180910390a25050505050565b600081600160201b8410610c985760405162461bcd60e51b815260040161069c91905b600060208083528351808285015260005b81811015611402578581018301518582016040015282016113e6565b81811115611414576000604083870101525b50601f01601f1916929092016040019392505050565b80356001600160a01b038116811461144157600080fd5b919050565b6000806040838503121561145957600080fd5b6114628361142a565b946020939093013593505050565b60008060006060848603121561148557600080fd5b61148e8461142a565b925061149c6020850161142a565b9150604084013590509250925092565b6000602082840312156114be57600080fd5b61097e8261142a565b60008060008060008060c087890312156114e057600080fd5b6114e98761142a565b95506020870135945060408701359350606087013560ff8116811461150d57600080fd5b9598949750929560808101359460a0909101359350915050565b6000806040838503121561153a57600080fd5b6115438361142a565b91506115516020840161142a565b90509250929050565b6000806040838503121561156d57600080fd5b6115768361142a565b9150602083013563ffffffff8116811461158f57600080fd5b809150509250929050565b634e487b7160e01b600052601160045260246000fd5b600063ffffffff838116908316818110156115cd576115cd61159a565b039392505050565b600063ffffffff808416806115fa57634e487b7160e01b600052601260045260246000fd5b92169190910492915050565b600060001982141561161a5761161a61159a565b5060010190565b60006001600160601b03838116908316818110156115cd576115cd61159a565b60006001600160601b038083168185168083038211156116635761166361159a565b01949350505050565b600063ffffffff8083168185168083038211156116635761166361159a56fe436f6d703a3a5f7472616e73666572546f6b656e733a207472616e7366657220616d6f756e7420657863656564732062616c616e6365436f6d703a3a617070726f76653a20616d6f756e7420657863656564732039362062697473436f6d703a3a7472616e736665723a20616d6f756e7420657863656564732039362062697473436f6d703a3a5f7772697465436865636b706f696e743a20626c6f636b206e756d62657220657863656564732033322062697473436f6d703a3a5f6d6f7665566f7465733a20766f746520616d6f756e7420756e646572666c6f7773436f6d703a3a5f7472616e73666572546f6b656e733a207472616e7366657220616d6f756e74206f766572666c6f7773436f6d703a3a7472616e7366657246726f6d3a207472616e7366657220616d6f756e742065786365656473207370656e64657220616c6c6f77616e6365436f6d703a3a5f6d6f7665566f7465733a20766f746520616d6f756e74206f766572666c6f7773a2646970667358221220136bdfe959e42aa18abe4e0977203459a3cb2d8d4bffdba065822d8eb71c578964736f6c634300080a0033",
    "linkReferences": {}
  },
  "methodIdentifiers": {
    "DELEGATION_TYPEHASH()": "e7a324dc",
    "DOMAIN_TYPEHASH()": "20606b70",
    "allowance(address,address)": "dd62ed3e",
    "approve(address,uint256)": "095ea7b3",
    "balanceOf(address)": "70a08231",
    "checkpoints(address,uint32)": "f1127ed8",
    "decimals()": "313ce567",
    "delegate(address)": "5c19a95c",
    "delegateBySig(address,uint256,uint256,uint8,bytes32,bytes32)": "c3cda520",
    "delegates(address)": "587cde1e",
    "getCurrentVotes(address)": "b4b5ea57",
    "getPriorVotes(address,uint256)": "782d6fe1",
    "name()": "06fdde03",
    "nonces(address)": "7ecebe00",
    "numCheckpoints(address)": "6fcfff45",
    "symbol()": "95d89b41",
    "totalSupply()": "18160ddd",
    "transfer(address,uint256)": "a9059cbb",
    "transferFrom(address,address,uint256)": "23b872dd"
  },
  "id": 12
}